:10000000801D0020610B00003D4B00004D0B0000E7
:100010004D0B00004D0B00004D0B000000000000D8
:10002000000000000000000000000000210D0000A2
:100030004D0B000000000000BD0C00004D0B000047
:10004000FD0E0000FD0E0000FD0E0000FD0E000084
:10005000FD0E0000FD0E0000FD0E0000FD0E000074
:10006000FD0E0000FD0E0000FD0E0000FD0E000064
:10007000FD0E0000FD0E0000FD0E0000FD0E000054
:10008000FD0E0000FD0E0000FD0E0000FD0E000044
:10009000FD0E0000FD0E0000FD0E0000FD0E000034
:1000A000FD0E0000FD0E0000FD0E0000FD0E000024
:1000B000FD0E0000FD0E0000FD0E0000FD0E000014
:1000C000FD0E0000FD0E0000FD0E0000FD0E000004
:1000D000FD0E0000FD0E0000FD0E0000FD0E0000F4
:1000E000FD0E0000FD0E0000FD0E0000FD0E0000E4
:1000F000FD0E0000FD0E0000FD0E0000FD0E0000D4
:10010000D00110B5144602D50A4804F0A5FBA101A0
:1001100002D5084804F0ABFB220502D5054804F0DF
:1001200085FBE30404D5BDE81040024804F089BB18
:1001300010BD00BFE402002001230A4603FA00F1CB
:10014000074B18690068014203D022B19B681B6904
:1001500003E0002AFAD09B68DB680148184700BF1B
:100160006854000008B5024804F08EFB002008BD6A
:100170001C58000008B5044804F086FB034804F04E
:1001800083FB002008BD00BF285800003E58000037
:1001900008B5024804F078FB002008BD685800004C
:1001A00008B5024804F070FB002008BD8E5800001E
:1001B00008B5044804F068FB034804F065FB002020
:1001C00008BD00BFA45800003E58000008B5044810
:1001D00004F05AFB034804F057FB002008BD00BFA1
:1001E000B95800003E58000008B5044804F04CFB24
:1001F000034804F049FB002008BD00BFD3580000AD
:100200003E580000032910B50CD8094A5456094A33
:100210000D205156FFF790FF0E202146FFF78CFF6F
:10022000002010BD044804F02FFB4FF0FF30F8E72A
:100230008459000088590000F158000038B5424840
:1002400004F022FB414D284604F0D9FE30B9404865
:1002500004F01AFB4FF0FF34204638BD284604F066
:10026000CEFE0028F3D0284604F0C9FE0028EED0C8
:10027000284604F0C4FE0028E9D0284604F0BFFE5A
:100280000028E4D0284604F0BAFE0028DFD04FF45E
:10029000B011304804F067F94FF4B01104462E480D
:1002A00004F061F94FF4B01104432C4804F05BF9F9
:1002B0004FF4B01104432A4804F055F94FF480314B
:1002C0000443284804F04FF94FF480310443264892
:1002D00004F049F94FF480310443244804F043F911
:1002E0004FF480310443224804F03DF904431D4893
:1002F00004F058F904431C4804F054F904431B4823
:1003000004F050F904431A4804F04CF9044303D0B4
:10031000184804F0B9FA9FE71749184B4B60184B7F
:100320008B60AB68DB6913B10122284698471548FA
:1003300004F060FA134804F06CFA00214FF0967054
:1003400003F044FBF9E700BF1159000068540000B6
:100350004659000030560000285600002056000084
:100360001856000050560000485600004056000045
:100370003856000069590000D80200200101000031
:1003800000180003E4020020014B1B68184700BF5F
:1003900000000020014B1860704700BF00000020E3
:1003A00030B585B004460D4610220021684605F0A0
:1003B00009F802238DF802302A46044B01932146A6
:1003C000684603F073FE05B030BD00BF890300002E
:1003D00080B505460E461746984603F011FB0346C6
:1003E00004F0F8FFDFF81890044649F80030424660
:1003F00030463946A84754F8090000F031FC00BFE8
:10040000080000002DE9F047058B044628079046B8
:1004100011D4022905F0070540F0CD80204604F0F4
:10042000A9FA78B10138218B042811D8DFE800F04F
:10043000C3106D85950001290CBF45F0100545F0EE
:100440002005258388F31188BFF36F8FBDE8F087FF
:1004500001F0070AAA4500F0A6800027B9463E46EB
:10046000A368002B00F0BD8041F00801218388F3D0
:100470001188BFF36F8FA168002900F0BB800D6861
:10048000002900F0B780D1F8048033465246204658
:10049000C047002D76D02B6829461D46F0E701F0B5
:1004A00007035A1F012A1BD8002221F00701062B3F
:1004B000276889B2C4E9002209D13B4603E0628B78
:1004C000013262831B68002BF9D141F002012183C4
:1004D000204604F04FFA00287BD041F0200177E05D
:1004E000042B0AD121F0070189B22183204604F0B0
:1004F00041FA10B141F020012183218B01F0070A5C
:10050000AA4550D00027B946AAE7236921F0070180
:1005100041F00601062DD3F8009021832DD1B9F1C9
:10052000000F40D041F00801218388F31188BFF308
:100530006F8F3A492046C84729E021F00701236917
:1005400041F0040189B2042DD3F804902183E6D050
:1005500000273E464FF0040A82E721F00701236995
:1005600041F0050189B2052DD3F808902183D6D03A
:1005700000273E464FF0050A72E700273E464FF03F
:10058000060A6DE72B4687E7B9F1000FD1D14FF08E
:100590002003EFF3118883F31288BFF36F8F238B4F
:1005A00023F008032383258BEA062ED525F01003BC
:1005B000238305F007056669218B002EBFF66FAF18
:1005C00000232768C4E9003321F0070141F001014D
:1005D0002183218B01F0070AAA454FF000097FF41F
:1005E0003FAF002F9BD041F00801218388F3118891
:1005F000BFF36F8F002FC7D03D6839463346524650
:10060000204604F0E3F92F46F4E7AB067FF51AAF76
:1006100025F02003238305F00705FFE6F9490000D4
:1006200008B504464FF02002EFF3118382F31288DD
:10063000BFF36F8F01F07CFD204600F0BBFA03484A
:1006400004F022F900F034FCFCE700BF8C590000F4
:10065000014B03600020704758560000014803F02A
:100660007DBB00BF5856000038B5044618B90F4B83
:100670000F485B6898476168B1F5683F10D0B1F5E5
:10068000680F0DD00B4DA9420AD011F468612068A3
:1006900007D00146084804F0E5FC002323606560AC
:1006A00038BD142204F08EFEF9E700BFE000002000
:1006B000B55900002C5F5CA92008002008B520B3C4
:1006C0004368B3F5683F10D101220368BFF35B8F25
:1006D00053E8001F002903D143E800200028F7D188
:1006E000BFF35B8F0DD1002008BD094A93420AD0A9
:1006F00000684FF0FF324FF0FF3302F0C1FD0028D9
:10070000F1D00448F0E70448EEE76FF4E040EBE78F
:100710002C5F5CA9E98FFFFFEA8FFFFF08B5D8B116
:100720004368B3F5683F10D100220368BFF35B8FC5
:1007300053E8001F012903D143E800200028F7D126
:10074000BFF35B8F0BD1002008BD074A934208D04E
:10075000006802F059FDF6E76FF4E040F4E7034863
:10076000F2E70348F0E700BF2C5F5CA9E98FFFFFC9
:10077000EA8FFFFF10B5044618B91D4B1D485B6892
:1007800098476368B3F5683F2FD0B3F5680F2CD056
:10079000194A934219D1236803BB18484FF0FF321E
:1007A0004FF0FF33214602F075FC08B923681BB9EE
:1007B0000F4B13485B68984720681422002104F00F
:1007C00001FE4FF46863636008E0B3F5683F0DD83D
:1007D0003A2B03D040F6BA629342DED1206804F08F
:1007E00081FC636843F03A03636010BD054AF3E798
:1007F000E0000020B55900002C5F5CA92008002013
:10080000DB5900003A00003A08B506490648402383
:10081000142204F019FCBDE808400449044803F020
:100820000FBB00BF200300202008002060560000FE
:100830007456000030BFFFF7FDBF00BF114B124AD6
:100840002DE9F041D518DFF84480013DB5FBF3F503
:100850005D430F4B08EB0304013CB4FBF3F403FBD3
:1008600004540E1B07460B49304604F09DFD7019D9
:1008700042460021083E04F0A5FD3E6704F1080051
:10088000BDE8F0810100000000000000040000004D
:100890000400000010560000044B99685869884213
:1008A00003D003494FF080520A6070479C09002032
:1008B00004ED00E070B5264B15469A6A12F0100F51
:1008C0009A6A14BF1124102412F0080F9A6A18BFF4
:1008D0001224920706460AD5586B9A6A140634D534
:1008E00019B19A6A22F080029A62132401E06FF033
:1008F0001500174B9A6A12F0010F9A6A18BF142458
:1009000012F0200F9A6A18BF1524D20602D49B6AEF
:100910009B070AD50E4B5B68190506D5314600F0DA
:100920008FFA10B180F309880224094B9A6A920663
:1009300042BF5A6A22F400525A629A6A42F0FF0297
:100940009A6200232B70204670BD6FF01500CCE733
:1009500000ED00E0134B9A6A12F0007F9A6A14BF10
:100960001E201D2012F0807F9A6A18BF1F2012F4EB
:10097000002F9A6A18BF212012F4802F9A6A18BF9C
:10098000222012F4003F9A6A18BF232012F4803FFD
:100990009A6A6FEA02426FEA12429A6218BF2420F2
:1009A000704700BF00ED00E010B5194B0246986A91
:1009B0009C6A10F4805F14BF1720162014F4006F97
:1009C0009C6A18BF1820A40509D5986B986A000482
:1009D00004D51AB19A6A22F400429A6219200C4B8B
:1009E0009A6A12F4806F9A6A18BF1A20D2050CD442
:1009F0009B6A13F4005F18BF1C20054A936A43F4F6
:100A00007F43936200230B7010BD1B20F5E700BFEE
:100A100000ED00E0F0B5484B5B688BB00446C3F3D3
:100A20000803002585F31188BFF36F8F02F07F4024
:100A3000B0F17F4F11D102F00C0008280DD0100743
:100A40004CBF0C4601250022033B8DF80720032BE9
:100A500005D8DFE803F0246367602C46F3E7002342
:100A60009DF80720CAB902AE04F12007206861682A
:100A7000324603C20834BC421646F7D1099A002D0B
:100A800054D0C2F3080121B96FEA52226FEA422220
:100A9000099202A9184604F04BF80BB0F0BD264BA2
:100AA000DA6A9107DBD4DA6A002AD8DBDA6A520004
:100AB000D5D55A69A16942F480725A61BFF34F8F4C
:100AC000BFF36F8F5A6931F8021C22F480725A61A9
:100AD000BFF34F8FBFF36F8F4DF6027291420AD072
:100AE0009A6AD2B24AB10DF1070201212046FFF7FE
:100AF000E1FE0346B4E72368B2E79A6A12F47F4F37
:100B000005D00DF107010120FFF74EFFF1E79B6AC9
:100B1000B3F5803FA3D3FFF71DFFEAE70DF107020E
:100B20000021E3E70DF107010020EDE722F4FF7259
:100B300022F00102ACE700BF00ED00E0024A536979
:100B400043F010035361704700ED00E0EFF30880BD
:100B5000EFF3098101B57246FFF75CFF01BD00BFED
:100B6000002080F31488BFF36F8F00F027FB002074
:100B70000D490860BFF34F8F0C4880F3088800F0E0
:100B80003DF8202080F3118809484FF40461401893
:100B900080F30988EFF314800221084380F314885E
:100BA000BFF36F8F00F014F994ED00E0801D00207A
:100BB000C00F0020BFF34F8F0549064BCA6802F4EF
:100BC000E0621343CB60BFF34F8F00BFFDE700BF70
:100BD00000ED00E00400FA050749D1F89020002359
:100BE000C2F307221846934200DB7047C1F89830E1
:100BF000C1F8A0000133F6E700ED00E008B572B6D9
:100C0000002383F31388FFF7E7FF144B4FF0FF3205
:100C1000C3F88020C3F88420C3F88820C3F88C2050
:100C2000C3F89020C3F89420C3F89820C3F89C2000
:100C3000C3F88021C3F88421C3F88821C3F88C212C
:100C4000C3F89021C3F89421C3F89821C3F89C21DC
:100C500062B6BFF34F8FBFF36F8F08BD00E100E0B6
:100C6000084B9B6883420BD1EFF3058343B1064BDE
:100C70005A6842F080525A605A6A22F400425A621C
:100C800004F0F4BA9C09002000ED00E0094A9368E2
:100C90006FF00A019967084958674B6843F0805321
:100CA0004B60002383F31188BFF36F8F9368986FB5
:100CB000704700BF9C09002000ED00E015498A68DC
:100CC0004FF030001044EFF3098C80E8F01F202033
:100CD00080F31288BFF36F8F0F4F4FF000664A69A1
:100CE0008A603E604FF07004141920680B4C20603D
:100CF000506F0023536780F3118804B5104600F04D
:100D00001DF9BDE8044002F1300090E8F01F8CF3BB
:100D1000098870479C09002004ED00E03C08002091
:100D20001EF0040F0CBFEFF30880EFF30980816918
:100D300011F8021C0229FFD001B503F0FBFE01BD32
:100D400040B2002807DB044A4109012300F01F00DC
:100D5000834042F82130704700E100E040B20028B3
:100D60000CDB4309064900F01F00203301228240BA
:100D700041F82320BFF34F8FBFF36F8F704700BF41
:100D800000E100E0054B420900F01F0053F822206B
:100D9000012303FA00F01040704700BF00E100E0BB
:100DA00040B20028A8BF00F1604001F10101B8BFC6
:100DB000064B4FEA4111ACBF00F5614000F00F0057
:100DC000C9B2B4BF195480F80013704714ED00E0A5
:100DD0000B4A08B50B4B22F07F029A60BFF34F8F8E
:100DE000BFF36F8FD3F8882022F47002C3F88820F5
:100DF00002F07EF802F00AFE00F074F802F0CAF881
:100E00000000000000ED00E042F8203C009B42F8AA
:100E10001C3C0A49019B42F8183C029B42F8143CD6
:100E200021F001014FF0807342F8043C42F8081CA5
:100E30000023203A02654367704700BFD1030000DA
:100E4000094A0346906870B113F1160F006E05D081
:100E5000A0F140029A4205D8834203D2814228BFC2
:100E600000207047002070479C09002008B51446F8
:100E70000A4A0B4B9060026F1A600D4600F05EF854
:100E8000204685F30988002163B681F31188BFF3FA
:100E90006F8F00220023FFF79BFA00BF9C09002000
:100EA0003C080020014910220A60704710ED00E064
:100EB00072B6404080F31188BFF36F8FBFF34F8F3E
:100EC00030BF62B6BFF36F8F704700BF72B6494044
:100ED00081F31188BFF34F8F20BF80F3118862B672
:100EE000704700BF044800232021C2180133302B73
:100EF00082F80013F9D1704700E100E001B5EFF38B
:100F00000580A0F110004FEAC0000449014409C95E
:100F10009847BDE80140024908470000905400008E
:100F200099080000024B034A0348012100F040B831
:100F3000000004200000002084560000026E054BD3
:100F4000403A1A60044A4021C3E9011218460121BF
:100F500000F038B84008002000000B15084AC2F81D
:100F600098000B6823F01F03034343F01003C2F8FB
:100F70009C308B6843F00103C2F8A030704700BF7B
:100F800000ED00E0044B0522C3F89420BFF34F8F1F
:100F9000BFF36F8F704700BF00ED00E0BFF35F8FBE
:100FA000024B0022C3F89420704700BF00ED00E020
:100FB00010B5034C0123227803F0DBFD207010BD37
:100FC000A40B002008B5094A0023127803F0D1FDD4
:100FD00010F1160F03D0064B0022072800DD08BDD4
:100FE000C3F89800C3F8A0200130F6E7A40B002056
:100FF00000ED00E0F0B5454D2C68082C85B000F2FE
:101000008280FFF7CBFF00200C2684420DD1404D9B
:10101000404F2C706846FFF71BFB00240646A64293
:101020000AD1FFF7AFFF00201CE0696806FB001142
:10103000FFF794FF0130E8E7009800EB04114FEA56
:10104000041CCB683B40B3F5000F4AD00CD8B3F575
:10105000001F30D0B3F5800F38D0B3F5801F12D009
:101060006FF0150005B0F0BDB3F1807F42D0B3F151
:10107000007FF5D150F80C3088684A6803F069FDAC
:1010800040F4802009E050F80C3088684A6803F08A
:1010900060FD40F0885040F4302003902878072805
:1010A000CDE90123DCD801A9FFF758FF2B780133E4
:1010B0002B700134B3E750F80C3088684A6803F0AD
:1010C00048FD40F0885040F40020E6E750F80C302E
:1010D00088684A6803F03DFD40F0E06040F400306D
:1010E000DBE750F80C3088684A6803F032FD40F0C6
:1010F0008270D2E750F80C3088684A6803F029FD06
:1011000040F08870C9E74FF0FF30ABE79056000021
:10111000A40B00200000F0FF08B5024B1B689847A5
:10112000002008BD4C080020034B044A1860937847
:1011300043F00203937070474C0800202400002005
:1011400008B50649064821F00701C1F1005202F531
:10115000802203F0D2FB002008BD00BFC71D002085
:10116000500800200E4A0123C2F840354FF080425B
:101170004FF08051C2F87835D1F83001082808D1F5
:10118000D1F83411052904D80648415C09B1C2F8E8
:1011900038364FF080430122C3F880250020704785
:1011A00000E00140175A000020B1034B800143F0DA
:1011B00001031847704700BF1056000000F0EABF57
:1011C000084B70B5C31A0D4607499B100446594396
:1011D0000648402203F01CFD2B4601462046BDE890
:1011E0007040184770080020B76DDBB6405400000F
:1011F00073B50C4C0C4A4023041B00930D460B4660
:101200000A49A41061430646094803F02EFD011E59
:1012100005DA30462B4602B0BDE87040184702B0F0
:1012200070BD00BF70080020D74C0000B76DDBB662
:1012300040540000002270B5012104461046FFF71B
:10124000AFFD0F4801F030F90E4B984215D101F077
:101250003BF926690C49304603F0DCFB00280BDB28
:10126000012535642469084904F11C0003F0D2FB10
:10127000002801DBE564002070BD6FF00400FBE78F
:10128000C11200000000AD0BB056000070B5014661
:101290000C2309484B43C418D4E90E5640330022AE
:1012A0001844A26303F0A1FC2DB132462B4603483B
:1012B000BDE87040184770BD700800204054000021
:1012C00010B1012804D07047034B1B6C5B0701D1A0
:1012D000FFF7DCBF704700BF7008002008B54FF073
:1012E0002003EFF3118183F31288BFF36F8F124A4B
:1012F000136843F002001060DA0708D481F3118804
:10130000BFF36F8F0120BDE8084001F0EFB84FF048
:101310008043D3F80C24D3F80C34DB07EED5074810
:1013200003F063FC81F31188BFF36F8F0020BDE8E9
:101330000840FFF7ABBF00BFC0080020B008002086
:101340001FB500220123CDE90223094ACDF800D0C0
:101350006B46CDF804D003F0B7FC002805DB4FF452
:1013600080420023684602F029F805B05DF804FBCE
:10137000F54C000010B54FF02003EFF3118483F318
:101380001288BFF36F8F074A136823F00201DB074F
:10139000116002D4012003F0A4FD84F31188BFF38F
:1013A0006F8F10BDC00800202DE9F0413849BFF310
:1013B0005B8F0746012251E8003F41E800200028EA
:1013C000F9D1BFF35B8F33B9324933484B60CB60FF
:1013D0008A6003F032FB7B1E012B2BD8012F07D133
:1013E0004FF08043D3F81C3403F00303012B21D0CA
:1013F00003F05EFE0546F8B9284B1B78E3B14FF0C9
:1014000080430222C3F808230646DFF894804FF099
:101410008044D4F81824D4F81834D20316D503F035
:101420000303012B01D0012F10D15DB386F3118886
:10143000BFF36F8FBDE8F0814FF02003EFF311860B
:1014400083F31288BFF36F8F0125DEE7ADB130461D
:10145000FFF73CFDD4F81835002BDAD1D4F804217D
:10146000002AD6D0C4F80431D4F804310123C4F8DA
:101470001835C8F88031A360CBE70021212002F0A5
:10148000A5FAE7E74FF080430222C3F80423D1E72F
:101490006C0800205C0800208C080020B70F00209A
:1014A00000E100E008B5074803F0A9FD38B106489F
:1014B000FFF73AFE0448FEF76DFF002008BD6FF00D
:1014C0001200FBE77C540000CD1400000A2838B558
:1014D000074D044604D1AB680D215B682846984748
:1014E000AB6803485B68E1B29847204638BD00BF4F
:1014F0007C540000F0B54068057B01F01F0444EA0D
:101500004514056987B0002D64D0B2F5001F00F1C5
:10151000100506D12146284603F063FD002007B0E0
:10152000F0BD01AE0027B2F5800F0197776039D189
:10153000B3F1007F14BF052304238DF8043000238A
:10154000CDE904630393836823FA01F111F00101EB
:101550001AD1B2F1A07F17D104F01F03620903F57D
:10156000E0732AD0012A3BD11F4A52F82330DB070F
:101570000AD40DF1030632462146284601F094FABA
:101580001A4B98421CD0029603AA2146284601F025
:101590004DF9174B984220D101222146284601F0EF
:1015A000EBFABBE7B3F1C06F05D0B3F1007F14BF16
:1015B00001230223C1E70323BFE74FF0A042D4E792
:1015C0003146284601F0D2FA094B9842DBD06FF041
:1015D0000B00A4E76FF08500A1E76FF015009EE710
:1015E00051F82330FFDE00BF000300500400AD0BB4
:1015F0000000AD0B38B545682B69B3B110352846EE
:1016000001F0A4FA044680B90146284601F066FAC2
:10161000084B98420BD108492246284601F03EFA71
:10162000224605210620FFF7BBFB002038BD6FF0E6
:101630000400FBE70000AD0B3D160000420970B549
:10164000034602D0012A17D070BD0D4E3269516891
:101650000029F9D003F01F0301250C689D400029E3
:10166000F2D08A682A4002D04B68304698472CB1A5
:10167000236821461C46F2E7024EE7E72346F8E7D7
:1016800068540000545400002DE9F043466840F2CD
:101690000635D006337B87B002EA050554BFC2F396
:1016A0004010032001F01F07B5F5837F144647EA79
:1016B00043178DF8030044D00FD8062D18D007D853
:1016C000B5B1022D3FD06FF0150007B0BDE8F08333
:1016D000B5F5807FF7D101250AE040F2022295425C
:1016E00033D0B5F5407F32D0B5F5007FEBD1022580
:1016F00022032ED5726801238B40C2F80835326967
:1017000092BB07F01F037F092BD0012F79D13F4AED
:1017100002EB830284F48033D2F80017C3F3004352
:10172000C4F3404444EA430421F4E16144EA800400
:1017300021F0070144EA05230B43C2F800370020DB
:10174000C3E70725D4E70425D2E70525D0E703251D
:10175000CEE7630341BF012372688B40C2F80C35AA
:10176000CDE74FF0A042D3E710360DF10202394623
:10177000304601F099F914F4403F80460CD13946C7
:10178000304603F02CFC224B9845D8D19DF802102E
:10179000304601F0E5F9D2E701AB4FF0000903AAAA
:1017A00039463046CDE90439CDE90199CDF80C90A0
:1017B00001F03CF8164B984285D114F4003315D053
:1017C0009DF803308DF80E3084F48034C4F3004467
:1017D0004B4603AA394630468DF80C508DF80D4023
:1017E00001F0DEF80A4B9842CDD06CE7CDE9043326
:1017F00003AA0DF1030339463046039301F016F8AE
:10180000F0E703F5E07352F82330FFDE00030050E9
:101810000000AD0B036803F01F025B09026004D0F7
:10182000012B034818BF002070474FF0A0407047BD
:10183000000300502DE9F04FDFF89481DFF8949118
:1018400085B01546824600EB8101514503D1002049
:1018500005B0BDE8F08FDAF80030DE04C3F34322B0
:1018600003F07F0400F1AE807F2C4FEA134318F899
:10187000027008BF4FF0FF34222B00F2A680DFE891
:1018800003F012191F22252B22A4A4A4A43C68A4AF
:10189000A4A4A4A4A4A4A4A46B818487A4A4A48ABB
:1018A0009295989B9E00C5F80C45601C5ED10AF18C
:1018B000040ACAE7C5F81445621CF8D000265FE0A8
:1018C000C5F80845F1E7C5F81045F5E7631CC5F80C
:1018D0000845ECD0002604E0661CC5F80C45E6D0AF
:1018E000012603A80394FFF795FF039B4FF0010B1C
:1018F0000BFA03F3C0F80C3508E0C5F80845002FD3
:10190000DAD1631CD3D00026B3460627DAF80030BC
:10191000019303F40052002A03A81CBF4FF0000BF0
:1019200001260394FFF776FF039A019B00EB8200E8
:10193000C3F3C114D0F800273B0243EA840343EA0F
:101940000B0302EA0902134343EA4603C0F80037D7
:10195000ADE7C5F80C45D2E7C5F86045601CDAF87C
:101960000030A4D0C3F38033002BB9D003A8039474
:10197000FFF750FF039B012606FA03F3C0F8083572
:10198000B346C3E7C5F86445E8E7C5F86845E5E749
:10199000C5F86C45E2E7C5F82445621C87D04FF0D6
:1019A000000B0126B2E7C5F828457EE7C5F83045AB
:1019B000F3E7C5F83445F0E7C5F83845EDE7C5F875
:1019C0003C4572E76FF0150042E76FF085003FE796
:1019D000485A0000F0F8FCFF2DE9F74306460022C4
:1019E00001210220FFF7DCF90220FFF7A9F977684F
:1019F00035693C684FF00008C4F800852E60D7F8C0
:101A00000C9001AA4146484603F0CCF9002839DB86
:101A1000019BD9F8002019791868FFF70BFF0028FF
:101A200030DB6B7AD6F810C0012B03D0032B27D103
:101A30004FF01008AB7A032B22D1E97A09B10129C2
:101A40001ED12A7A12B1022A1AD10E226B6870684E
:101A5000B3F5164F006800F0B28034D8B3F5165FC6
:101A600000F0B0801AD8B3F5966F00F0AD800CD8B6
:101A7000B3F5967F00F0AB80B3F5167F00F0AA8037
:101A80006FF0850003B0BDE8F083B3F5166F00F08A
:101A9000A480B3F5965FF3D15C4B43E0B3F5E14F1F
:101AA00000F09E8008D8B3F5615F00F09B80B3F52D
:101AB000964FE5D1564B35E047F6122E7345DFD1F0
:101AC0004FF400032EE0B3F5613F00F08D8015D890
:101AD000B3F5963F00F08B800AD84DF6C02E7345C3
:101AE00000F08780B3F5614FCAD14FF46B0319E062
:101AF000B3F5E13FC4D14FF0EB7313E0B3F5612FC1
:101B00007AD009D8DFF80CE1734578D0B3F5E12F2E
:101B1000B6D14FF0E86305E0DFF8FCE07345AFD1E4
:101B20004FF08053C0F82435736841EA08011B6800
:101B30000A43C3F86C25D5E901010CF1040383E8DD
:101B400003007B68990712D505F1180001F040F9F0
:101B5000324B984256D1287E04F10C0204F5907164
:101B600003F0B5F92B7E0120984000F035FC0823E6
:101B7000C4F800353B7A53B9C4F81031D4F81031A9
:101B80006B69C4F834350123C4F8383523607B68A9
:101B90009A075CBF4FF48073C4F804337B68DB069C
:101BA00044BF4FF48003C4F804332B69C4F84435B0
:101BB00000200123C4F84805A360E36062E74FF406
:101BC0001D03AFE7164BADE74FF49E23AAE74FF492
:101BD000A033A7E74FF41C33A4E74FF41D23A1E77C
:101BE000104B9FE7104B9DE74FF06C739AE70F4B3C
:101BF00098E74FF4650395E74FF0706392E74FF075
:101C000080638FE76FF004003CE700BF00B0130073
:101C100000A04E0090D0030040420F000000AD0B2A
:101C20000050270000C0750000F03A0000903A0113
:101C3000F8B5044607690D4603F03AFAB0B92E4BE1
:101C40001B789BB16426606803F0DAF800BB0120C2
:101C500003F03BF9013EF6D10021212001F0B6FE50
:101C6000F0E786F31188BFF36F8FF5E74FF020039D
:101C7000EFF3118683F31288BFF36F8F60683146EC
:101C800003F0BEF890B986F31188BFF36F8FEDE7CC
:101C90004FF02003EFF3118683F31288BFF36F8FA9
:101CA0006068314603F0ACF80028DAD03B691D705B
:101CB000626838691368C3F844050120C3F8480511
:101CC0000020C3F82001D3F82051C3F8580152680E
:101CD000D3F85801D20608D5626812680820C2F805
:101CE00000054FF48002C3F8042301229A6081F3B7
:101CF0001188BFF36F8FF8BDB70F002070B50123B7
:101D000083400E4ABFF35B8FDC4352E8001F01EAB9
:101D1000040542E80056002EF7D1BFF35B8F4FF465
:101D2000803282400648C0F80823BFF35F8FBFF3BC
:101D30006F8F0B4214BF0120002070BDE00800200F
:101D40000010014070B40E49D1E90034D01AC31814
:101D500044F1000422F07F46C1E90034A6F50013E7
:101D6000B3F5400F09D2074B1B681A0A1B069C19D2
:101D7000054B42F10005C3E9004570BC01F01CBFF2
:101D8000A8010020E4080020B001002011B3BFF337
:101D90005B8F0123104A834052E800CF4CEA030CCA
:101DA00042E800C10029F7D1BFF35B8F0B4A4FF423
:101DB00080338340C2F80433094BBFF35B8F1B6849
:101DC000BFF35B8FC340DB0742BF064B4FF40032CB
:101DD000C3F80021704700BFE00800200010014058
:101DE000DC08002000E100E00D4B1868010A000645
:101DF000BFF35F8F0B4BD3F80435181841F1000186
:101E0000B3F5801F0AD2084BD3E90023904271EB4F
:101E1000030303D210F1807041F10001704700BF4D
:101E2000E408002000100140B00100202DE9F04F2F
:101E300085B016461F469DF840A00446FFF75EFF9A
:101E40000190FFF7D1FFB04271EB070354D23E4B34
:101E5000301A67EB0101984271F100014FD23B4B00
:101E600003EB0413D3E902239F4208BF96425ED0DE
:101E700037494FF4803804F1500508FA04F8AD00F2
:101E8000C1F848832046ADB203F003F826F07F4B3B
:101E900005F1804504F5A87305F58835DC464FF05B
:101EA00003090293029A2CF07F4341F82230C1F8D3
:101EB0004483D1F80435274A6FF00200C01A604409
:101EC00020F07F40904232D9286868B1D1F80435BB
:101ED0000393A3EB0B0020F07F40B0F5000F26D951
:101EE000204602F0D6FF039BBAF1000F07D109EBA1
:101EF000030C09F10109D5E7BAF1000F09D06FF021
:101F0000150520460199FFF741FF284605B0BDE8B9
:101F1000F08F0123104ABFF35B8FA34052E8000FFC
:101F2000184342E800010029F8D1BFF35B8F07494D
:101F30000E98230101EB0412C8500F9B5360C2E9B5
:101F400002670025DDE700BF010080009801002046
:101F500000100140FDFF7F00DC0800207FB51C4C15
:101F60001C4BC4F80833C4F848331B4B00254FF012
:101F7000FF304FF0FF31C4F80855C3E902014FF4B8
:101F80008033C4F80433154B02264FF4003201218C
:101F9000C4F804631120C3F880212A46FEF700FF2D
:101FA0001120FEF7CDFE0E4A0123A36023601360CB
:101FB0000C4B0D4A0093CDE9015500232846FFF74D
:101FC00035FF3046FFF7F0F9284604B070BD00BF7A
:101FD0000010014003000F009801002000E100E024
:101FE000E0080020451D0000FFFF7F002DE9F743BA
:101FF0002F4CD4F8043399070BD5D4F8043143B1EE
:102000002C4A0023C4F80431D4F804311368013396
:102010001360D4F80433DA032AD5BFF35B8F264B61
:1020200053E8002F22F0010143E800100028F7D107
:10203000BFF35B8FD30702D4D4F84031C3B100257E
:10204000C4F84051D4F84031FFF7CEFE4FF02003E2
:10205000EFF3118283F31288BFF36F8F174BD3E92D
:102060000267B042B94106D282F31188BFF36F8F85
:1020700003B0BDE8F0834FF0FF384FF0FF39C3E9FC
:102080000289D3E900101D604FF48033C4F848334F
:10209000C4F84051D4F8403182F31188BFF36F8FF8
:1020A0000029E5D0009032463B4628468847DFE7C6
:1020B00000100140E4080020DC0800209801002006
:1020C00030B5431C124C85B005D08442A8BF0446ED
:1020D000012CB8BF0124FFF787FE0E4B0C4DD3E94E
:1020E0000013401AB0F5000F10D22218AA4228BFE0
:1020F0002A4652184FF0000007490091CDE901002F
:1021000043F10003FFF792FE05B030BD2A46F0E729
:10211000FFFF7F00A8010020451D000008B5FFF764
:1021200063FE024B1B68C01A08BD00BFA801002057
:1021300010B5084C012363601120FEF70FFE064B1B
:10214000C4F80833C4F84833044B4FF40032C3F8E2
:10215000802110BD0010014003000F0000E100E0ED
:102160004FF08053D3F83021082A06D1D3F8343108
:10217000052B02D8024AD05C70470020704700BF90
:10218000645A0000024AD2F80034002BFBD070479A
:1021900000E0014010B54FF08053D3F83021082AF9
:1021A0004ED14FF080420021C2F80C11C2F810113C
:1021B000C2F8381502F54042D3F80414C2F82015CD
:1021C000D3F80814C2F82415D3F80C14C2F8281553
:1021D000D3F81014C2F82C15D3F81414C2F8301523
:1021E000D3F81814C2F83415D3F81C14C2F84015EB
:1021F000D3F82014C2F84415D3F82414C2F84815B3
:10220000D3F82814C2F84C15D3F82C14C2F8501582
:10221000D3F83014C2F85415D3F83414C2F860154A
:10222000D3F83814C2F86415D3F83C14C2F8681512
:10223000D3F84014C2F86C15D3F84434C2F87035A2
:10224000FFF78EFF18B13A4B3A4AC3F88C26FFF7D6
:1022500087FF18B1384BFB22C3F81825FFF780FF22
:1022600070B14FF080414FF08053D1F8E42ED3F895
:10227000583222F00F0203F00F031343C1F8E43E7B
:10228000FFF76EFF20B12D4B4FF40072C3F84026CC
:102290004FF08053D3F83031082B1AD14FF08043E0
:1022A000D3F80024D20744BF6FF00102C3F8002422
:1022B0004FF08053D3F83431052B02D8204AD35C39
:1022C0003BB14FF01023D3F808224FF08043C3F8FE
:1022D00058254FF01023D3F80022002A03DBD3F84F
:1022E0000432002B22DA174901234FF01020C1F8E5
:1022F00004351224FFF746FFC0F80042FFF742FF03
:10230000C0F80442FFF73EFF0023C1F80435FFF791
:1023100039FFBFF34F8F0C490C4BCA6802F4E062DF
:102320001343CB60BFF34F8F00BFFDE710BD00BF6D
:10233000005000404881030000F00040009002403F
:102340005E5A000000E0014000ED00E00400FA05E4
:1023500030B50468CCB1BFF35B8FB4FA84F3C3F13A
:102360001F03DBB201229A4024EA020250E8005F18
:10237000A54204D140E8002CBCF1000FF6D1BFF318
:102380005B8FE6D102480B7030BD0248FCE700BF0E
:102390000000AD0B0200AD0B10B50368CB40DB07AE
:1023A00014D401238B400268BFF35B8F43EA020120
:1023B00050E8004F944204D140E8001CBCF1000FEB
:1023C000F6D1BFF35B8FEED1014810BD0148FCE7A9
:1023D0000000AD0B0400AD0B014BC3F804057047C2
:1023E00000F00140F7B5044618B1012823D003B02E
:1023F000F0BD4FF080430222C3F808230122DA60C7
:10240000C3F80401D3F80431064601238DF80730E0
:1024100042F210754FF08047D4B1012CE7D1D7F8C4
:102420000C3403F48033AEBB83B3012002F04DFDC6
:10243000013DF4D12AE04FF080430022C3F80803A5
:102440005860C3F80021D3F800310DF10706DCE72E
:10245000D7F8183403F480333EB9002BC7D00120DD
:1024600002F033FD013DF3D1C1E7D7F8182402F0A3
:1024700003023260002BBAD09DF80700012803D177
:1024800002F023FD013DC7D1012CB0D1054B002244
:102490005A71ACE7D7F80C2402F001023270002B1D
:1024A000EAD1F3E7E8080020044B1A7922B90122A7
:1024B00018609A800248704702487047E808002078
:1024C0000000AD0B0C00AD0B08B5074B1B682BB122
:1024D0000020FEF757FC08B9FEF732FC4FF08043AE
:1024E0000022C3F8182508BDE808002010B510B177
:1024F000012843D010BD4FF08043D3F81814D3F80F
:102500001824C80321D502F00303012B04D013B112
:102510000020FFF767FF00234FF080420220C2F83F
:10252000183508224FF4827303F1804300211960AB
:1025300002F180421C6801241460154A12680AB333
:102540004FF08043C3F80403D4E7D3F81424D10731
:10255000E1D5D3F81C249207DAD40D4A12681AB1D7
:102560000222C3F80423C5E7D3F80421002AFBD0D4
:102570000022C3F80421D3F80431BBE700224FF452
:102580008073D1E71A68002AFCD019601B68B1E794
:10259000E808002010B54FF08043D3F800216AB15D
:1025A0000022C3F80021D3F800210122C3F8082338
:1025B000114B587910B95A711B6898474FF08043F6
:1025C000D3F8042172B10022C3F80421D3F8042106
:1025D000D3F81824D3F81824920704D10122C3F8A1
:1025E00018259A6010BD0222C3F80823024BBDE8EB
:1025F00010401B6801201847E8080020036803F01A
:102600001F025B09026004D0012B034818BF0020A1
:1026100070474FF0A040704700030050034A430941
:1026200000F01F00D35C1844C0B270476A5A000023
:1026300070B50546FFF7F2FF0C4C08300E4634F833
:102640001030DA0508D5C3F3432304EBC302284650
:1026500054F8333052689847A3682BB1E26831468A
:102660002846BDE87040184770BD00BF50000020EC
:1026700008B5FFF7D3FF034B083033F81000400BC9
:1026800008BD00BF5000002008B5FFF7C7FF034B8F
:10269000083033F81000C0F3400008BD500000209F
:1026A00008B5FFF7BBFF034B083033F81000C0F349
:1026B000401008BD50000020034611F0010010B585
:1026C000CCB20DD1A207C4F3400012D5094AD2F80A
:1026D00020055860C2F82005003818BF012008E026
:1026E0004FF0A041D1F820251A60C1F82025002A1A
:1026F000E8D010BD0003005010B5FFF78FFF124A5D
:10270000083032F81030D9051CD5C3F3432123F427
:10271000F85322F8103002F10E04002034F8023F82
:1027200013F4807F03D0C3F3432399420AD00130CE
:102730003028F3D1002342F831300448BDE810407E
:10274000FFF72ABE10BD00BF50000020C8000020C7
:10275000F0B5054600200446012607468C420BD101
:10276000114BD3F87C2132B10022C3F87C21D3F87D
:102770007C3140F00040F0BDE3B29B0003F5807275
:102780009B0806FA03F31D420BD002F1804202F5CA
:10279000C042D2F800C0BCF1000F02D0176012682E
:1027A00018430134DAE700BF00600040F7B5064681
:1027B0000846FFF733FF194F00F108050C4637F8BC
:1027C0001530DB0727D5304602F0E5FB2046FFF742
:1027D00067FF40B12046FFF74BFF316800F5A2705C
:1027E000002341F820302046FFF786FF002301A890
:1027F00027F815300194FFF701FF019B00EB8300E0
:10280000074BD0F80027134043F00203C0F800370D
:10281000044803B0F0BD0448FBE700BF50000020AF
:10282000F0F8FCFF0000AD0B0400AD0B2DE9FF41FB
:10283000164680460846FFF7F1FE0D46316804460D
:1028400009B32846FFF720FF18B12846FFF728FFF5
:1028500010BB0023CDE900338DF80E308DF80F301A
:102860000DF10F020B4628460DF10E0102F03BFB65
:10287000474A04F1080132F8113023F0020343F013
:10288000010322F81130736863B328461F78596832
:10289000FFF7FAFE10B1D1B13E4826E03C4A04F100
:1028A000080032F8103023F02003DB04DB0C22F8A0
:1028B000103061B1032FEFD87168496891F800C0FA
:1028C000D8F80010A7B90CF5A27C41F82C70304A5A
:1028D00004F1080132F8113023F01C0343EA8703A6
:1028E00022F81130B3684BBB2B4804B0BDE8F0812F
:1028F00001EB8C0143EA4C33D1F810E52EF0030EC6
:10290000C1F810E5D8F8001001EB8C0E43F020035D
:10291000DEF8101522F8103021F44F3121F4407107
:10292000CEF810152902DEF8108501F47C5141EA39
:10293000074141EA0801CEF81015C8E7D3E900675E
:102940002846FFF7D9FE002ECED0114DD5E9002341
:10295000964203D19F4201D1002209E00F480DF1B8
:102960000F01FFF7F5FC0C4B9842BED19DF80F20EC
:1029700045F8326005EBC20308345F6035F8143067
:1029800043EA422343F4807325F81430ACE700BFD8
:10299000500000200400AD0B0000AD0BC80000206B
:1029A0002DE9F0430C4685B08046204611461E4670
:1029B000FFF734FE054629B32046FFF765FE18B938
:1029C0002046FFF76DFE18BB314F05F1080937F8B7
:1029D000193013F01C0F02D04B78012B18D00123B3
:1029E0008DF80F300023CDE900134A1C8B1C2046C4
:1029F0000DF10F0102F077FA37F8193043F00303B5
:102A000027F81930002E41D02046FFF73DFE18B9B7
:102A1000204805B0BDE8F08396F800C0D8F8003033
:102A20001B4F0CF5A272002143F8221005F1080299
:102A300037F8121021F02001C904C90C27F8121030
:102A400075781DB3D8F80000B67800EB8C002D0423
:102A5000D0F8103523F4991323F4F853C0F8103547
:102A6000230203F47C5305F440353605D0F810E515
:102A70002B4306F4801641EA4C31334341F02001E8
:102A800043EA0E0327F81210C0F810350248C0E7D9
:102A9000500000200400AD0B0000AD0B014BC3E95A
:102AA000021270475000002010B508461446FFF788
:102AB000F7FD50B10846FFF7B1FD054B083033F87C
:102AC000103004485B0B237010BD0348FCE700BFC7
:102AD000500000200000AD0B0400AD0B70B5184E87
:102AE00096F8804005464CBB2146602206F1100056
:102AF00002F068FC2D68306F2146884212D1002315
:102B0000C5F87C3145F30730D5F87C31FEF718F96C
:102B10004FF00043C5F804330A48012386F880309B
:102B2000B36770BDCBB29B0003F580727C2B08BFEE
:102B3000AC5001F1010108BFAB58DEE70248F0E7F5
:102B4000500000200000AD0B0C00AD0B034B93F8C0
:102B50008000003818BF0120704700BF50000020DF
:102B60000148FFF719BC00BFC40000200148FFF76F
:102B7000EFBB00BFC400002073B5054608460C46F5
:102B80001646FFF78DFD00B30846FFF77DFD0146B1
:102B9000D8B92046FFF76CFD04B2A40004F580729A
:102BA000034628688150296882582144D1F81025AD
:102BB00042F00102C1F810252EB12968012202FA63
:102BC00003F3C1F8043302B070BD2046FFF726FDC1
:102BD0000F4B083033F81030C3F38203042B12D0AC
:102BE000052B12D001A80194FFF708FD019AD0F837
:102BF0001035D34003F00103991C204602B0BDE814
:102C0000704002F0B9B90321F7E70221F5E700BFF0
:102C1000500000202DE9F04F694BDFF8A881D3F870
:102C20000403D8F87010C0B289B040F00040FFF73C
:102C30008FFD051E2FDAC24600235AF87C1F06A816
:102C4000CDE90633FFF738FD5F4B01930DF118090D
:102C50004FF0000B019A12F8013B0192DA0803F0E1
:102C600007031AF8022022FA03F3DA071CD409F149
:102C70000409BBF1000F14D0D8F870104FF00040D9
:102C8000FFF766FDD8F87C1006A8FFF715FD0028B1
:102C9000DAD125F000450124002D79D109B0BDE835
:102CA000F08F4FF0010BD5E7484B5B440293D9F806
:102CB00000100029DBD0029B91FAA1F11C78B1FA37
:102CC00081F141EA44142046FFF7A8FC083005943E
:102CD00038F81070C808BB0819F80020039301F0F9
:102CE0000701012303FA01F122EA010209F8002099
:102CF00005A8FFF783FC059A039B02F5E072C7F372
:102D0000820650F822205B073746C2F3014224D5E1
:102D100020463946D6B2FFF78BFC05A80594FFF78D
:102D20006DFC059B03F5E07350F82330C3F30143BA
:102D30009E4207D10021204602F01EF9314620466E
:102D400002F01AF905A80594FFF758FC059B01222B
:102D500002FA03F3C0F82035A9E7022A0CD10321B7
:102D6000204602F009F906F00503012BEAD13946A5
:102D70002046FFF75DFCE5E702212046039202F0C2
:102D8000FBF8032EF3D0039A032ADBD1022EEDE7E2
:102D900095FAA5F3B3FA83F304FA03F29B0003F167
:102DA000804303F5C04325EA0205D3F81005D3F8A4
:102DB0001015C0F30520C1F30141FFF739FC6BE7A3
:102DC00000600040500000207A5A00007A5A00004B
:102DD00001460148FFF7BCBAD400002008B5144BE7
:102DE000A8220021184602F0EDFA032202611149DF
:102DF0004261114A8161C2614FF480620262002225
:102E000082624262C26201660C494166102181669B
:102E100003460267C2664267BFF35F8F084911F835
:102E2000010D98540132102AF9D1BFF35F8F08BD0C
:102E3000F00800207C5A0000B70B0020A70B0020F0
:102E4000955A000038B54FF02003EFF3118583F356
:102E50001288BFF36F8F064B9C6802F026F885F34B
:102E60001188BFF36F8F2046BDE83840FDF7F8BEEC
:102E70009C090020104B70B553F82040013053F8E6
:102E80002060A64200D870BDD4E9003595B153B199
:102E90002846984738B10028B8BF4042EB68FF2861
:102EA000A8BFFF201870EA68537843F001035370FD
:102EB0000834E6E79847FBE77C57000008B50A4B63
:102EC000012203201A70FFF7D5FF00F0F9FE04205D
:102ED000FFF7D0FF00F04CF9FDF7B0F9034A137B80
:102EE00023F00103137308BDB70F00203802002040
:102EF00008B50348034A0021121A02F08BF808BDF6
:102F000098010020BC0F002070B5002386B001227C
:102F1000CDE90423194E1A4D01930F22CDE9023257
:102F20001849142303FB005506EBC01604464FF462
:102F3000C070154B00954FF4A07200FB0411304691
:102F400000F0D6F8737B114AEE6023F0040373732C
:102F50004FF4046304FB033313446B600C4B2C7479
:102F6000BFF35B8F53E8001F013143E80012002AD2
:102F7000F8D1BFF35B8F06B070BD00BFB801002071
:102F80009C09002000180020BD500000C00F002048
:102F90009809002080B50020A6B0FFF76BFF2D4BED
:102FA00083F308882C4D2D4E6B692D4F43F400732D
:102FB0006B610024E02385F82230EC772C766C7668
:102FC000AC7685F820406B6A43F4E0236B6285F8A9
:102FD0002340FDF7B3FDFDF765FF4FF0FF33AB6214
:102FE000EB62FEF707F8FDF79DFF40F20113ADF825
:102FF000243006ABB360CDE91E44219401F0FEFFFE
:103000000120FFF737FF0220164DFFF733FF00F0D6
:1030100053FC154B75610593012314490094CDE9C8
:1030200003434FF480623B46CDE90144284600F05B
:103030005FF86A7B064622F0040228466A7302F0B3
:1030400092F82046FFF760FF3A4631462846FDF7E2
:103050000DFF00BF0018002000ED00E09C090020DB
:10306000BD2E000038020020965A00008019002072
:1030700038B5064C064D0020AC4200D338BD204682
:1030800001F0CCFF0028F9DB1C34F5E748010020F3
:103090004801002073B50C464FF02005EFF3118175
:1030A00085F31288BFF36F8FC5685DB125602B680B
:1030B000C360836901338361002081F31188BFF30A
:1030C0006F8F11E052EA030603D125606FF00B0009
:1030D000F3E7CDE900230246083000F029FB18B9D8
:1030E000024B9B685B69236002B070BD9C090020A5
:1030F0002DE9F04385B00732994600F1580322F0DC
:103100000706C0E91633109B037306F1400504233C
:10311000002743730D440F9B83738846C0E90677ED
:1031200029468760C7730446FDF788FB08F1400312
:103130000730C4E9183620F007000E9BA066029302
:103140000D9B01932D1A0C9B00932A464B4641463A
:103150002046FDF759FE054B67659B6803B1DB6EA2
:10316000E366284605B0BDE8F08300BF9C09002057
:1031700070B5224C224D86B02646AE4204F1300492
:103180000AD300F069FB1D4C1E4EAC4220D306B0A2
:10319000BDE8704000F074BB54F80C3C059354F843
:1031A000103C049354F8143C039354F8183C0293D5
:1031B00054F81C3C019354F8203C009354E90A2332
:1031C00054E90C01FFF794FF54F8303C5E65D3E7F7
:1031D000D4E90A23B3F1FF3F08BFB2F1FF3F05D0A6
:1031E00052EA0301206803D100F018FB3034CCE729
:1031F0003146183000F06AFCF8E700BF10560000B6
:10320000105600000152000038B5836804466BB3C5
:10321000194A926893422CD1C368012B03D9013B10
:10322000C360002038BD4FF02003EFF3118583F316
:103230001288BFF36F8F0169806801F04BFF204651
:1032400001F0E2FFA06058B190F90E202261002247
:10325000826701F088FF0948294600F0CDFAE0E7CF
:10326000E06085F31188BFF36F8FDAE76FF0150028
:10327000D8E74FF0FF30D5E79C090020B80F0020B9
:103280002DE9F341044617461E464FF02003EFF3A5
:10329000118883F31288BFF36F8FC368334A7BB101
:1032A00080689168884219D057EA060318D188F3DC
:1032B0001188BFF36F8F6FF00F0002B0BDE8F0818F
:1032C000916891F90E1021610133E3609368A36066
:1032D00088F31188BFF36F8F0020EEE72169F2E7D2
:1032E00091F90E1090F90E309942A8BF19466FF06F
:1032F0007E029142B8BF11468B422EDD01F0EAFEFC
:103300000546CDE900761A482246414600F010FAFB
:103310000028E1D04FF02003EFF3118683F31288E9
:10332000BFF36F8FA068D0B1236821699C420AD097
:103330004BB193F90E309942A8BF19466FF07E0346
:103340009942B8BF194601F0C5FE40B10848314660
:1033500000F052FA6FF00A00AFE70025D1E7002D28
:10336000F4D186F31188BFF36F8FF3E79C09002037
:10337000B80F002038B504464FF02003EFF3118555
:1033800083F31288BFF36F8F01F03EFF48B1002234
:10339000826701F0E8FE29460748BDE8384000F0A2
:1033A0002BBAD4E902329A4218BF0133A36085F3E5
:1033B0001188BFF36F8F38BDB80F002013B54FF0E1
:1033C0002004EFF3118184F31288BFF36F8F8468B8
:1033D00044B1013C846081F31188BFF36F8F0020FA
:1033E00002B010BD52EA030406D181F31188BFF385
:1033F0006F8F6FF00F00F3E7CDE90023024602481C
:1034000000F096F9ECE700BFB80F0020C3897F2BCE
:1034100012D80A4B1B6863B1094B90F90E201B6848
:103420009A4209DB437BDB0606D1064BC31A18BF61
:10343000012303F0010070470023FAE7C4090020CC
:10344000C0090020B8010020044BC01A044BC01072
:103450005843044B01221A54704700BFB8020020A1
:10346000ABAAAAAAB80F002070B50E4B0E4C1E7C5A
:1034700006EB460304EBC3040546204601F017FFA4
:103480000A4B002228469A55FFF7C0FF48B1084B67
:1034900008491A68013A2046D317BDE8704000F089
:1034A00015BB70BD9C090020B8020020B80F002099
:1034B000C40900204934000038B50D4D2B4653F89F
:1034C000184F9C4200D004B9EC68AB6838B95A7BFD
:1034D000D20604D1A26912B9DA897F2A05D89C42A2
:1034E00002D02046FFF7C0FF23466B6138BD00BF06
:1034F0009C09002070B590F90D20437B002A0146FD
:1035000004DA03F07F03437301F0F3FD4B7B154AAC
:1035100063F07F0310464B7350F8183FD469834221
:1035200008BF002323B9C1E900042160D1610CE088
:1035300091F90E5093F90E60B5420ED0AE420CDDFB
:103540005868C1E90030016059609068431A5842D8
:10355000BDE870405841FFF7AFBF9C42E3D01B6805
:10356000E0E700BF9C09002070B490F90D30427B69
:10357000002B29DBD30627D183692BBB134962F0CB
:103580007F0242730A4652F8184F944218BF2346EE
:10359000CC6923B9C0E900242060C8610CE090F92F
:1035A0000E5093F90E60B5420AD0AE4208DD5A685B
:1035B000C0E900321060586070BC0020FFF77CBF8B
:1035C000A342E7D01B68E4E770BC70479C09002069
:1035D00008B590F90D20437B002A014604DA03F078
:1035E0007F03437301F085FD044B9868431A5842EA
:1035F0005841BDE80840FFF75FBF00BF9C090020AD
:1036000070B515461C46064601F085FDB4F1FF3F36
:1036100008BFB5F1FF3F08D02A46234606F118003F
:103620000249BDE8704000F051BA70BD015200007F
:103630002DE9F041002A437B0E460CBF10210821E2
:10364000194204460AD10B43DD0903F09F0211D150
:103650004273082914D00120FFF72EFF1B4B9B68F3
:10366000A3422CD1EFF305834BBB3046BDE8F041BC
:10367000FDF70CBB03F01F03437301F03AFDE8E7CD
:10368000A36813B1204601F03CFD04F1180001F0DD
:103690000EFE04F158074FF00008A56DBD42DAD0C8
:1036A000002DD8D0284601F02CFD05F1180001F0BE
:1036B000FEFDC5F878802846FFF756FFEDE786F354
:1036C0001188BFF36F8FBDE8F08100BF9C09002017
:1036D00038B54FF02003EFF3118583F31288BFF361
:1036E0006F8F104B104A9C681068A04206D1FFF7FC
:1036F000BBFE85F31188BFF36F8F38BD00211B7CA3
:1037000011600A4AD35C002BF3D02046FFF77EFEFF
:103710000028EED0637BDB0602D12046FFF7EAFEED
:103720002046E4E79C090020BC090020B80F0020D7
:1037300070B50C480C4D86682E600C461146DDE9CC
:1037400004234FF02006EFF3118586F31288BFF3B0
:103750006F8F8068FFF754FF2046BDE87040FDF78B
:1037600095BA00BF9C090020BC090020F8B50446AA
:103770004FF02003EFF3118683F31288BFF36F8FAE
:10378000437BDA0649B219D18569BDB903F07F03DD
:10379000437301F0AEFC437B164A817363F07F03F1
:1037A0004373134653F8180F984218BF0546D06963
:1037B0005DB9C4E900300460D46111E0A173002058
:1037C00086F31188BFF36F8FF8BD95F90E70B9427B
:1037D0000BD08F4209DD6B68C4E900531C606C603C
:1037E0000120FFF769FE0120EAE7A842E1D02D6839
:1037F000DEE700BF9C09002049B9EFF3058030B92E
:10380000054B5A699B689A4201D0FDF73FBA81F394
:103810001188BFF36F8F70479C09002010B54FF0DF
:103820002002EFF3118482F31288BFF36F8F427B83
:10383000510704D484F31188BFF36F8F10BD22F0B9
:1038400004024273FFF790FE21460248BDE8104093
:10385000FFF7D2BFB90F00204FF02003EFF3118123
:1038600083F31288BFF36F8F044B9A68D37B013BBD
:10387000D37381F31188BFF36F8F70479C090020C9
:1038800010B54FF02003EFF3118483F31288BFF3D8
:103890006F8F084B9A68D37B0133D3730020FFF7F7
:1038A0000BFE84F31188BFF36F8FBDE8104001F069
:1038B000D3BC00BF9C090020024B03F11802C3E9EE
:1038C000062270479C090020F8B54FF02003EFF363
:1038D000118583F31288BFF36F8F19498868437B82
:1038E00003F07F03437301F004FC8B685A7B0846A6
:1038F00062F07F025A7350F8182FCC69824208BFD9
:10390000002222B9C3E900042360CB610CE093F9E3
:103910000E6092F90E70BE420ED0B7420CDD5168B7
:10392000C3E900210B6053600120FFF7C5FD284665
:10393000BDE8F840FDF7AAB9A242E3D01268E0E77B
:103940009C09002050EA01032DE9F04105460E468E
:1039500003D1FFF7B9FF00202CE0831C71F1FF3386
:103960002ADB01F0BAFC2C184FF02003EFF311888A
:1039700083F31288BFF36F8F114F124BB868186032
:10398000FFF726FEB86810492A463346183000F083
:103990009DF8BA68537B43F0100353734046FDF71C
:1039A00075F901F09AFC201A63EB0303012873F107
:1039B0000003D0DBBDE8F0816FF00104241AD3E7E7
:1039C0009C090020BC09002001520000B1F1FF3F1A
:1039D00008BFB0F1FF3F08B506D1084B986801F069
:1039E000D2FB4FF0FF3008BDFFF7ACFF4FF47A7306
:1039F00080FB0303C00B40EA4340F4E79C0900202E
:103A0000014B9868704700BF9C09002008B5064824
:103A1000064A0749121A01F0FFFABDE80840054AB4
:103A20000549064801F0F8BA00000020980100207E
:103A3000DC5A000000000000DC5A000000000020FA
:103A4000034B1B680BB9FEF769BB0020704700BF32
:103A5000C809002010B50E4B1C689C4204D1FFF72A
:103A6000EFFF6FF0004010BDFFF7EAFF002CF8D029
:103A7000D4E904321B1A62EBE072B3F1004F72F129
:103A80000001EEDA002AACBF18460020EBE700BFC9
:103A9000D800002030B570B10B4B5B6898420AD05B
:103AA000036843B1D3E90421D0E90445121941EB7D
:103AB0000501C3E90421D0E9003213605A600023F4
:103AC000C0E9003330BD00BFD8000020B3F1FF3F94
:103AD00008BFB2F1FF3FF8B504461D4616465CD05C
:103AE00081604FF02003EFF3118783F31288BFF357
:103AF0006F8F013275F1FF3324DA2D49D1E90020AF
:103B00006FF001039B1A4FF0FF3262EB00009E1B27
:103B100060EB0500012E70F1000301DA01260020A0
:103B2000C4E90460234ED6F800C07568B44508BFE8
:103B30004FF0000CBCF1000F0DD1C4E900652C6002
:103B400074601CE0FFF77CFF013645F10005361874
:103B500045EBE070E4E7DCE90420D4E9043193426A
:103B600071EB000E1ADAD21ADCF8043060EB0100B7
:103B7000CCE90420C4E900C31C60CCF804403368DD
:103B8000B34206D09C4204D1FFF764FF0021FEF748
:103B900097FA87F31188BFF36F8FF8BD9B1A61EB1B
:103BA0000001AC45C4E90431C7D0DCF800C0C1E76E
:103BB000D0020020D80000202DE9F84F4FF020035C
:103BC000EFF3118C83F31288BFF36F8FDFF8B0A08F
:103BD000DFF8B0902C4FC9F80000DAF8000000249C
:103BE000504508BF00200025D7E90021D9F8003052
:103BF000E04680B3D0E9046C4FEAE37EB3427EEB4B
:103C00000C0B05DAF61A6CEB0E04C0E9046422E032
:103C1000B21841EBE671C0E90445C7E90021FFF79E
:103C200039FF88F31188BFF36F8F836898474FF08F
:103C30002003EFF3118883F31288BFF36F8FD9F855
:103C40000030DAF800009B1B5045C446C9F800302C
:103C5000CAD1D7E900219A1841EBE3730024C7E9E0
:103C60000023C9F80040FFF7F5FE2146FEF728FAC9
:103C700088F31188BFF36F8FBDE8F84FFFF728BDB9
:103C8000D8000020C8090020D002002010B54FF055
:103C90002003EFF3118483F31288BFF36F8FFFF7D4
:103CA000CFFE064A0346D2E90001181841EBE37142
:103CB00084F31188BFF36F8F10BD00BFD0020020C6
:103CC000014800F0E1BD00BF9B5A000010B50A4C4E
:103CD00023681BB101232360002010BD00F0EAF827
:103CE0000028F7D00138062803D8044B53F82000E9
:103CF00010BD034810BD00BFCC0900209457000040
:103D0000FE8FFFFFBFF34F8F0549064BCA6802F4D1
:103D1000E0621343CB60BFF34F8F00BFFDE700BFEE
:103D200000ED00E00400FA0510B4094B09490A4C03
:103D30004FF0FE32C3F800244968C3F80424C3F8E6
:103D40000824C3F80C240023C4F8003510BC08472D
:103D500000B00250E000002000A00250D0E90012A4
:103D6000014BC3E900127047E000002010B5044683
:103D700050B1636813F0685F05D0064A934202D0E1
:103D800000232360626010BD034B04485B689847C2
:103D9000EFE700BF2C5F5CA9E0000020B0570000F7
:103DA000C8B143680D4A934213D013F0685F0ED038
:103DB000012350E8002F194640E8001C9CF0000F3A
:103DC000F7D1012AF5D0BFF35F8F00207047044878
:103DD0007047044870476FF4E04070472C5F5CA95F
:103DE000E98FFFFFEA8FFFFF80B14368094A9342E2
:103DF0000AD013F0685F05D0BFF35F8F0023036024
:103E00001846704704487047044870476FF4E04014
:103E1000704700BF2C5F5CA9E98FFFFFEA8FFFFFAF
:103E200010B5044620B1044B63600022226010BD2F
:103E30000248FFF779FFF6E73A00003AD85700004A
:103E400070B5D0E90023174C174D6360D0E90230FC
:103E5000C4E9023022604868D1F800C0134BC3E9BE
:103E600000C0D5F81801D1F808C0C3F808C010F098
:103E7000685FD1F80CC00969C3F80CC0196110D093
:103E80000B49C5F8BC110023C5E9453105F58A7019
:103E9000C5F8B8319047236805F5DC70BDE870407F
:103EA000184770BDFC000020E4090020E800002055
:103EB0002C5F5CA938B500F02FF820B1032400F086
:103EC00063F8204638BD00F031F898B900F0ACF83E
:103ED00098B90F4DD5F828391B0EF02B08D1D5F81D
:103EE000242A0C4B9A420AD0072400F017F8E6E780
:103EF0000624FAE70424204638BD0024F5E7012013
:103F000000F092F804460028F7D1C5F80C0AD8E76B
:103F100000B002500000E0200020704700207047F1
:103F2000014BC3F8040A704700B0025010B51148A5
:103F300000F048F800B110BD0F4800F043F8002829
:103F4000F9D10E4C204600F03DF80028F3D10C4B7F
:103F50000C481C6000F036F801460028EBD100F058
:103F60002DF8044608B1204610BD00F03FF8204669
:103F7000FAE700BF3C010020380100203401002096
:103F80002C0100203001002008B5084800F024F87A
:103F9000074800F021F8074800F01EF8064800F036
:103FA0001BF8BDE8084000F00BB800BF3C01002042
:103FB000380100203401002030010020002070472B
:103FC000704700BF08B5034B02681B68106898472C
:103FD000002008BDFC00002008B5034B02685B68A8
:103FE00010689847002008BDFC00002070B5094CFF
:103FF000094D2069AB68984718B1084B08485B68C1
:104000009847084AEB68206900211160BDE87040BC
:10401000184700BFE8000020FC000020E00000205E
:10402000FC570000E0090020F8B51A4D1A4E04466E
:10403000B26828699047E8B9184F3B684CB1A3B102
:10404000012B19D0013B3B602869F3689847002099
:10405000F8BD43B9124A0121C2F800151149D1F83F
:104060001029002AFBD101333B60F3682869984787
:104070000020F8BD0C48F8BD0A4AD2F81039002BD0
:10408000FBD1074A6FF07E40C2F80035FFF748FFCA
:104090003B68D7E7E8000020FC000020E009002092
:1040A00000A0025000B00250E98FFFFF2DE9F04F51
:1040B0008DB043680293837815469A07804640F195
:1040C0000D8100240E78002E00F00A81252E0BD0E1
:1040D0004B1C03930134029B41463046984700280D
:1040E000C0F2F6800399EDE74E788B1C252E0393E2
:1040F000F0D00027B946BB46BBF11F0F38D8A6F158
:104100002003102B0AD8DFE803F02A090930090937
:10411000092109090928092D09091F00A6F1300301
:10412000092B33D92A2E37D11BF0400F55F8043B09
:1041300040F08280002BA7BF4BF0200B9946C3F1C3
:1041400000094BF0280B01E04BF0010B039B13F827
:10415000016B0393002ECFD130E04BF0020B4BF0FC
:10416000040BF3E74BF0080BF0E74BF0100BEDE717
:10417000BBF17F0F19D8A6F13003092BD2D81BF061
:10418000400F03D00A2101FB0737DFE70A2101FBBB
:1041900009394BF0200BD9E72E2E06D11BF0400F2A
:1041A00040F09E804BF0400BD0E76C2E31D02BD8E6
:1041B000682E36D06A2E3CD04C2E3AD0002F46F0D6
:1041C0002003B8BF2BF04002A3F16501BCBF1FFA6A
:1041D00082FB0027022901D9612B2FD1073525F059
:1041E0000705DFF8ACA2083507271BF0080F66D0DB
:1041F0000AEB070B56465E4563D1A4EB0A0A06EBB1
:104200000A02A9EB07096FE1742E9FD07A2E9DD088
:10421000D4E71BF0800F18BF4BF4007B4BF0800BF2
:1042200094E71BF4807F18BF4BF4007B4BF4807B3A
:104230008CE74BF4207B89E71F4687E7A6F16301F3
:10424000122900F2F080DFE811F013004F00EE00B9
:10425000EE00EE00EE004F00EE00EE00EE00EE008D
:10426000EE00FE00E900EE00EE001B00EE00AF00E5
:1042700055F8043B8DF8183001270DF1180AB4E702
:1042800055F804AB834BBAF1000F08BF9A461BF0F8
:10429000400F14BF39464FF0FF31504601F021F86E
:1042A0000746A2E7029B41462020984700280FDBE3
:1042B000013EB742F6D34C44A41BB14698E74E46A4
:1042C000F7E716F8010B029B41469847002892DA5F
:1042D00098F8023043F0040388F802304FF0FF34BE
:1042E00020460DB0BDE8F08F1BF0800F34D01BF4DA
:1042F000007F2CD0073525F00705AA4669685AF8D3
:10430000080B2BF010050029ADB237DA404261EB03
:10431000410145F480650DF1180B0A235A4600F05F
:10432000ECFFA0EB0B0301936B0662D5019B25F01C
:1043300001019F4289B240F3A180002E00F09980D4
:1043400015F0100240F09C80BB460D4623E0AA46C3
:104350005AF8040BC117D4E7AA461BF4807F5AF819
:10436000041B01D10846F5E71BF4007F15BF48B2D6
:1043700008B241F3C01141F3C031C2E750EA010372
:10438000C9D11BF0400FC6D0002FC4D12BF01102B1
:1043900095B2BB46019740F2064115EA01021CBFE7
:1043A0000BF1010B00222CE02BF010021FFA82FB14
:1043B0000A231BF0800C49D01BF400711DBF073588
:1043C00025F00705AA46AA461ABF5AF8080B6968DD
:1043D0005AF8040B50EA010545D12BF016051BF0E5
:1043E000400FADB242D0002F40D12BF0170295B252
:1043F000019715F0100248D0019B002E42D103F125
:10440000010B29075AD4EB0706D5D9456FDD019971
:10441000A9EB0B035F18CB465B4649E04BF0100B52
:1044200010237826C5E7782B04D1C6F1780343F032
:104430001003BEE7029B4146252098470028FFF65F
:1044400047AF023447E608230026B2E7AA461BF42A
:1044500080715AF8040BBDD01BF400711ABFC0B2B2
:10446000614680B2B6E72BF0060295B20DF1180B4B
:1044700054E725F01105ADB2BB468CE70D46B8E711
:104480003B460D4603F1020BBBE7DDF804B082E7C3
:10449000D25A0000CB5A0000CDE904324146029BBB
:1044A000202098470028FFF613AF049B059A01339C
:1044B0009945F1DCA4EB0B01CC189B460AB3029B97
:1044C0004146302098470028FFF602AF8EB90134EC
:1044D0002744019B391B994224DC1D465DBB019A90
:1044E000A9EB0B09224455461446914435E0019F3F
:1044F00092E7023441463046029B98470028E7DAAB
:10450000E6E640F206410D42E2D015F0020F14BF7C
:104510002B20202015F4806F04F10104414618BFC0
:104520002D20E9E7029B414630209847002804F1FE
:104530000104CEDACCE606AB013D4146585D029B54
:1045400098470028CADAC3E6029B414620209847D4
:10455000002804F10104FFF6BBAEA9EB0403002B15
:10456000F2DCBFE57047F0B403460A461979DB88F0
:1045700000681343DC028768066906D513F4402FF0
:1045800003D0DA0748BF83F44023346801258D4007
:1045900023F48012DB074CBF2C43AC4334603B68F0
:1045A000F0BC184710B403460068197983689C6909
:1045B0007CB10269012312688B401342A44618BFE4
:1045C0004FF0007310BC08BF4FF080634FF0A07233
:1045D00060476FF0570010BC704708B501211020EC
:1045E000FBF7AAFD002008BD08B500211020FBF74D
:1045F000A3FD002008BD08B501210F20FBF79CFD9D
:10460000002008BD08B500210F20FBF795FD002014
:1046100008BD10B50446C168FBF7F4FDA16820464B
:10462000FBF7A0FDE1682046FBF7A4FD0223237001
:1046300010BD10B5416A002912DD8469C369426961
:10464000013CD25CA342B4BF01330023C3610139F2
:10465000531E4162032B03D8DFE803F004080B0E5E
:10466000002010BD012343700120FAE7012383706D
:10467000FAE70123C370F7E701230371F4E7026946
:1046800043689A420DD0C3680268D1544268C36837
:10469000013A9342B4BF01330023C360036901337D
:1046A0000361704770B5067C044676BB0123037432
:1046B000FFF7BFFF2378013B032B1DD8DFE803F092
:1046C00002267B9123792BB1002323702046FFF72C
:1046D000A0FF11E063782BB100232370A36801339E
:1046E000A360F3E7A37823B100232370A368023308
:1046F000F6E7E378002BE7D16670668026712046E6
:10470000FFF797FF0028D5D1207470BD237963B3DC
:10471000E568002D0CD1A368E3B125702046FFF7B2
:104720005CFFA5602046FBF751FD04232370E3E7FF
:1047300010DDA3689D420DDC002323702046FFF7A7
:104740005AFFD4E902329B1AA3602046FBF730FDE2
:104750000323EBE7E37893B9002D1BD1A3681BBBC0
:1047600025702046FBF71CFDB0E7E378E3B1E36872
:10477000022B0ADD032B17D10023237008E0022D42
:104780002B4602DD032DE7D1F6E70022227001332C
:10479000E3609BE708DDA3689D4205DD00232370ED
:1047A0002046FBF7F5FC91E76378002B94D1A378C2
:1047B000002BA1D098E72379002B9DD0A368002B74
:1047C00005DD002323702046FFF71CFF7EE793D111
:1047D00023702046FFF716FF2046FBF705FD012357
:1047E000A4E72379002B87D0002323702046FFF70E
:1047F000FBFEF1E700F12802002342611422C0E928
:104800000233C0E9073303600371037482614362BA
:10481000704770B5057C04463DB90126C0E90255D4
:104820000674FBF7E1FC2670257470BD10B50121FC
:1048300004461430FFF723FF2046BDE81040FFF781
:1048400031BF10B5022104461430FFF718FF20468F
:10485000BDE81040FFF726BF10B503210446143011
:10486000FFF70DFF2046BDE81040FFF71BBF10B556
:10487000042104461430FFF702FF2046BDE8104033
:10488000FFF710BF002070470FB407B504A951F817
:10489000040B0191FBF784FD03B05DF804EB04B059
:1048A000704700EBC100408840087047F8B50346E8
:1048B000FFF7F7FFB0FA80F0C0F11F0003EB800CA8
:1048C000CA00DCF81060171D0C4606328DB256B9CE
:1048D000012101FA00F0D9680143D960CCF81040F9
:1048E000DD539D52F8BDF1000431585AD85303EB03
:1048F000C0009E52C5805D52F4E7043A2DE9F041B4
:10490000CC1D114424F0070421F007010E1BF70809
:10491000B7FA87F2C2F12405AD004FF00008073561
:10492000C2F12002ED0804604146A760C4F80C8083
:10493000920004F1100000F045FD6B0043F001030C
:10494000638004EBC5027B1B5900A4F800805180F2
:10495000A21924F83550A2F80280A35304EBC70330
:1049600029465A8842F001025A802046BDE8F041AB
:10497000FFF79CBF038B13F0070305D10368002BDF
:104980000CBF002003207047022B05D1408BB0FAEA
:1049900080F0400980007047012B05D10368002B8F
:1049A0000CBF0020052070470020704710B50C4652
:1049B00000B111B96FF0150010BD081D00F095F899
:1049C0000028F9D1A368032BF6D9F3E72DE9F041CC
:1049D0000D4607461946281D90461E4600F096F8DB
:1049E000044638B13346424629463846A446BDE817
:1049F000F0416047BDE8F08110B44FF02004EFF3C0
:104A0000118284F31288BFF36F8F416110BC0121C2
:104A1000FBF7F8BC38B50C46054658B151B10B68E8
:104A200043B14B6833B11C22002100F0CBFC2C6158
:104A3000002038BD6FF01500FBE770B505460E4647
:104A4000FFF7B4FF041E15DB4FF02003EFF31182D4
:104A500083F31288BFF36F8F6B8B2C8B4FF6FF7134
:104A60008B4204F0070407D182F31188BFF36F8FE4
:104A70006FF00A04204670BD022C0CD101336B8309
:104A800082F31188BFF36F8F0023224631462846F8
:104A9000FFF79CFFEEE7062C14D8DFE804F00413C0
:104AA0001313041A0400002333606B683BB9C5E993
:104AB0000066ACB902212846FBF7A4FCDAE71E60C9
:104AC0006E60F6E782F31188BFF36F8F6FF0040416
:104AD000D0E782F31188BFF36F8F6FF08504C9E7C9
:104AE00082F31188BFF36F8FC4E7034658B1426861
:104AF00002F00302012A03D0032A04D1026812B192
:104B00000020986070476FF0150070474268816020
:104B100002F00302032A4FF0000203460CBF0068B4
:104B200010465A607047704708B50020FBF778FDC3
:104B3000FEF788B901460068FEF784B908B5FBF7AF
:104B400079FEBDE80840FBF7A7BE00210120FFF772
:104B5000EFBF202809D9B0F1004F08D80138B0FACA
:104B600080F0C0F11F0040007047082070473E20D1
:104B700070472DE9FF410E4698461446054600272A
:104B8000B74220DA6868C8B1B8F1000F07D0431EF9
:104B9000184216D11F2814D92A68134211D12B6844
:104BA0000193FFF7D6FFAB6803430393E3B2072BF0
:104BB00007D8204601A9FCF7D1F9013401370C359B
:104BC000DEE76FF01504204604B0BDE8F08108B5BB
:104BD000FCF7A2FA002008BD0369C9B20C2201FB50
:104BE0000233186C00F0070070474FF02003EFF31A
:104BF000118283F31288BFF36F8F036803F0C00341
:104C000043F00203036082F31188BFF36F8F704794
:104C100070B5C9B203694FF02004EFF3118584F336
:104C20001288BFF36F8F0C2606FB0134246C14F03E
:104C3000C00408D0A24206D085F31188BFF36F8F5D
:104C40004FF0FF3070BD06FB013301221A6485F37B
:104C50001188BFF36F8F436803EBC1035B6898470C
:104C60000020EFE78022FFF7D3BFF8B5069F046965
:104C7000C9B24FF02005EFF3118685F31288BFF318
:104C80006F8F0C2505FB0144256C05F0070CBCF16A
:104C9000010F0CD1276486F31188BFF36F8FC4E92D
:104CA0000E23436853F8313098470020F8BD05F0D3
:104CB000C005AF4286F31188BFF36F8F0CBF6FF052
:104CC00077004FF0FF30F1E713B580240094FFF731
:104CD000CCFF02B010BD10B40069CBB21C2403FBA2
:104CE0000400002110BC10470020FDF7FFBB00208E
:104CF00000F0F7B81046FEF73DBB43685B68D3F899
:104D000010350B600020704743685B6802EA0100C1
:104D100021EA0201C3F80805C3F80C15002070470A
:104D200043685B680020C3F80815704743685B68F8
:104D30000020C3F80C15704743685A68D2F8043550
:104D400021EA03000B40C2F80805C2F80C35002028
:104D5000704710B503695868F8B1884219D19C684A
:104D600008685860A14200D19860002008602AB10C
:104D70005A680A609A68596002B99960002010E088
:104D8000814206D10868206098688142EDD19C601C
:104D9000EBE7044600680028F2D1002AE8D16FF062
:104DA000150010BD30B543681360057A446804EB04
:104DB000C504A34202D36FF0010030BD5C798C4280
:104DC00001D00833F0E70020F7E743681B68D3F809
:104DD0008004C3F880047047436802691B68D3F8F5
:104DE000100150B15269002012780A70C3F8100106
:104DF000D3F8102101221A6070474FF0FF3070473E
:104E000002680346D2F8580140B95B689B0706D494
:104E1000D2F82001003818BF0120704701207047E8
:104E200042681368D3F80413C90518D5D3F82011C4
:104E3000A9B14FF02000EFF3118180F31288BFF386
:104E40006F8FD3F8200130B10020C3F82001D3F8D0
:104E500020010120D86081F31188BFF36F8F526861
:104E6000D20615D54FF02001EFF3118281F312889D
:104E7000BFF36F8FD3F8581111B10021C3F800159B
:104E80004FF48001C3F8081382F31188BFF36F8FCA
:104E9000704700F150039B009BB203F1804303F580
:104EA000883300221A601B68704708B50020FBF7A2
:104EB00081FEFEF70BBF08B5FBF7D0FBFBF7A4FCA8
:104EC000BDE80840FEF702BF004700F093B8C000FD
:104ED00000F1804000F5F830C0F81015C0F8142536
:104EE0007047FDF77FBAF7B5019001A8DDE90847E3
:104EF00016461D46FDF782FB019BB6F1000C18BF5C
:104F00004FF0010C00EB83000B1E18BF0123002D96
:104F100043EA4C0314BF4FF00C0C4FF0000C002C74
:104F200043EA0C0314BF4FF4E06C4FF0000C002F69
:104F300043EA0C03D0F8002714BF4FF4403C4FF075
:104F4000000C43EA0C0322EA030301B109780EB115
:104F50003678760019430DB12D78AD0031430CB190
:104F60002478240229430FB13F783F040C433C438B
:104F7000C0F8004703B0F0BD1FB50DF10F0301935A
:104F800000238DF80F1000931A461946FFF7ABFF68
:104F900005B05DF804FB38B5054608460C46FDF73C
:104FA0007FFBB0B10846FDF76FFB90B90846FDF7EF
:104FB0005FFB2A6801238340C2F808332A6803B2E2
:104FC00002EB8303D3F8102522F00302C3F8102567
:104FD00038BD20460021BDE83840FFF7CDBFFDF7C2
:104FE000E5BBFFF7D8BFFDF7F9BE08B5FFF7FBFF3C
:104FF000002008BD08B1FCF7D7B87047704740B132
:10500000C368587810F001001EBF1878B0FA80F01D
:105010004009704700F0D6B900F0C6B9826843690C
:10502000134313F003030CD1C3600169994201D803
:1050300000207047C16811604169C26001330A44B1
:10504000F3E76FF01500704710B5C0E90432002394
:10505000816083610446FFF7E1FF0028A8BFC4E92F
:10506000004410BDF8B504460D464FF02003EFF3A1
:10507000118683F31288BFF36F8FC7686FB900F092
:10508000C3F850B18767456100F06DF8314604F10F
:105090000800BDE8F840FEF7AFBBE3682B60A369EA
:1050A000E560013BA36186F31188BFF36F8FF8BD04
:1050B000EFF30580003818BF0120704708B54FF0A6
:1050C0002002EFF3118382F31288BFF36F8FFBF797
:1050D000EFFEF4E790F90E308B4201D0FEF746BBAD
:1050E0000020704703460020C3E90200C3E90033F3
:1050F0007047D0E9003213605A600023C0E90033E2
:10510000704708B5FFF7F5FF437B23F002034373B5
:105110000023836008BD38B504460D46FEF758FAF3
:10512000637B43F002036373E5B1A5602B689D4286
:1051300009D16B68C4E900531C606C6012E06A68B6
:105140009342F6D01B68002BF3D094F90E2093F90C
:105150000E108A42F3D09142F1DD5A68C4E9003260
:1051600014605C6038BD10B54FF02003EFF311847C
:1051700083F31288BFF36F8FFEF7F6F984F311887B
:10518000BFF36F8F10BD10B50446183000F08FF8D4
:105190004FF02003EFF3118183F31288BFF36F8F79
:1051A000627B12F0100204D081F31188BFF36F8F7D
:1051B00010BD2046BDE81040FEF73ABA38B50446A7
:1051C0004FF02003EFF3118583F31288BFF36F8F45
:1051D000437B13F0280F0BD183680BB1FFF791FFCE
:1051E000637B51B903F0FB0363732046FEF7BCF900
:1051F00085F31188BFF36F8F38BD03F0EB03F3E73E
:1052000001211838FFF7DABF38B54FF02003EFF36C
:10521000118583F31288BFF36F8F0468A0420DD00D
:1052200034B12046FFF76DFF04F1180000F03FF89D
:1052300085F31188BFF36F8F204638BD0024F7E750
:10524000034620B9EFF305820AB9FBF71FBD83F3CC
:105250001188BFF36F8F70474FF02003EFF3118079
:1052600083F31288BFF36F8FFFF7EABF4FF020027E
:10527000EFF3118182F31288BFF36F8F027BD207A5
:105280000AD581F31188BFF36F8F404080F31188F6
:105290004FF0040002DF7047437B1B0704D581F306
:1052A0001188BFF36F8F70470122FEF7C1B910B5A7
:1052B0004FF02002EFF3118482F31288BFF36F8F57
:1052C00003683BB1FEF7E6FB002084F31188BFF3CF
:1052D0006F8F10BD6FF01500F7E708B5FEF7D6FC2D
:1052E00008BD10B5024601448A42134603D01C781B
:1052F0000132002CF8D1181A10BDF0B5C3F13707F0
:105300000446FFB203F01F031046082BE6B233D069
:10531000102B3ED06508A40844EA817445EAC175A3
:105320002D194FEA910242EB5102290941EA02711B
:105330006D1842EB1212290A41EA02616D1842EB24
:105340001222290C41EA02416D1842EB1242AD18BB
:1053500042F10002EC0844EA4274D10804EB8402F2
:10536000A6EB4205EDB2092D0CD90134A5F10A05D1
:1053700041F10001EDB212E0E40844EA417406F0A4
:105380000705C908303554EA010200F8015BBCD1B9
:10539000F0BD240944EA017406F00F050909092D3E
:1053A00084BFED19EDB2EDE70A44914200F1FF33FD
:1053B00000D1704710B511F8014B03F8014F91422D
:1053C000F9D110BD02440346934200D1704703F85F
:1053D000011BF9E701480068704700003C08002005
:1053E000651100000000000035120000405400006C
:1053F000EB4F0000000000007130000000000000D2
:10540000F515000068540000F51500005454000024
:10541000B34E000000000000D91900007C540000C9
:10542000A5140000000000005D1F00000000000047
:105430004111000000000000B74E00000000000015
:105440001D5A0000BC560000CC5600004001002050
:10545000700800202C5A0000E85600001857000081
:1054600042010020C40800203A5A00000057000002
:105470001857000044010020D0080020505A0000B6
:105480003C57000070570000460100203400002007
:1054900095250000C94E0000000000004B4B0000A5
:1054A0007C540000214E0000000000004B4B000027
:1054B000000000004B4B0000000000004B4B0000C0
:1054C000152C0000C94E0000000000004B4B0000EE
:1054D000000000004B4B0000000000004B4B0000A0
:1054E000000000004B4B0000000000004B4B000090
:1054F000000000004B4B0000000000004B4B000080
:10550000000000004B4B0000000000004B4B00006F
:10551000000000004B4B000000000000ED1F0000E9
:10552000000000004B4B0000000000004B4B00004F
:10553000000000004B4B0000000000004B4B00003F
:10554000000000004B4B0000000000004B4B00002F
:10555000000000004B4B0000000000004B4B00001F
:10556000000000004B4B0000000000004B4B00000F
:10557000000000004B4B0000000000004B4B0000FF
:10558000000000004B4B0000000000004B4B0000EF
:10559000000000004B4B0000000000004B4B0000DF
:1055A000000000004B4B0000000000004B4B0000CF
:1055B000000000004B4B0000000000004B4B0000BF
:1055C000000000004B4B0000000000004B4B0000AF
:1055D000000000004B4B0000000000004B4B00009F
:1055E000000000004B4B0000000000004B4B00008F
:1055F000000000004B4B0000000000004B4B00007F
:10560000000000004B4B0000000000004B4B00006E
:105610000338FDD8704700006854000010000100F6
:10562000685400000F000100685400000E000100E3
:10563000685400000D0001006854000019001100BA
:105640006854000018001100685400000C0011009C
:10565000685400000B00110000000000294B0000FE
:105660001C000020140000200C000020000000009E
:10567000040000207507000069060000BD06000058
:105680001D070000000000200000000000000B06C5
:10569000020000009856000000000000085A0000B8
:1056A0002600020700000020105A000022000B1103
:1056B000F1110000C111000000000000DD12000027
:1056C00075130000E94C0000EF4C0000411300008E
:1056D000654C0000C94C000000000000D94B0000E0
:1056E0000000000000000000FFFF00000003005069
:1056F0000000000001000000006000400000000009
:10570000BCF801FF00000050000000000000000095
:10571000006000400000000089160000FB4C000003
:10572000094D0000214D00002D4D0000394D0000B5
:10573000F5140000534D0000000000000020004060
:1057400002000000000000004C5700000020004054
:1057500058570000010000006057000004000000DE
:105760000600000005000200880101008701030017
:10577000D94D0000311C0000CB4D0000E05300006B
:10578000E053000028540000305400004054000052
:1057900040540000FF8FFFFFFF8FFFFFFE8FFFFFD2
:1057A000FE8FFFFFFD8FFFFFFC8FFFFFFC8FFFFFD2
:1057B0006D757465785F667265652063616C6C6594
:1057C000642077697468204E554C4C20706172617A
:1057D0006D6574657200000043616E277420696E08
:1057E000697469616C697A65206D757465782C20BF
:1057F000776173204E554C4C0D0A0000436F756C59
:1058000064206E6F74206C6F636B20706F776572AD
:105810002073617665206D757465780043726564E8
:1058200069743A2025640A0050726F6475637420AD
:1058300073656C65637465643A2025640A00787842
:1058400078787878787878787878787878787878D8
:1058500078787878787878787878787878787878C8
:105860007878787878780A004E6F2063726564697A
:10587000742E20506C6561736520696E7365727457
:10588000206D6F726520636F696E732E0A004E6F14
:105890002063726564697420617661696C61626C11
:1058A000652E0A0044697370656E73696E672070B7
:1058B000726F647563742E0A00506C6561736520A5
:1058C0007069636B20796F7572206368616E6765BC
:1058D0002E0A00507265737320616E7920627574B0
:1058E000746F6E20746F2070726F636565642E0A2A
:1058F00000556E65787065637465642073656C65CA
:105900006374696F6E2076616C75653A2025640A50
:10591000000A207878787878787878787878787845
:105920007820202056656E64696E674D61636869F2
:105930006E6520202078787878787878787878780C
:10594000787878200A004F6E65206F72206D6F7234
:1059500065206465766963657320617265206E6F8A
:10596000742072656164790A004661696C6564201F
:10597000746F20636F6E6669677572652047504962
:105980004F730A0000010001000001014661696CCB
:10599000656420746F207265626F6F743A20737053
:1059A000696E6E696E6720656E646C6573736C7981
:1059B0002E2E2E0A006D757465785F696E697420ED
:1059C00063616C6C65642077697468204E554C4C3B
:1059D00020706172616D6574657200436F756C64EF
:1059E000206E6F7420616C6C6F63617465206D75DF
:1059F000746578206265666F726520696E69746986
:105A0000616C697A696E6700464C4153485F3000AB
:105A10005352414D5F3000000001000000636C6F85
:105A2000636B403430303030303030006770696F35
:105A3000403530303030333030006770696F40357A
:105A400030303030303030000001020304050607EA
:105A500075617274403430303032303030000000C4
:105A60000000000101000000000000203030303054
:105A70003030303030303030303000015465726DAD
:105A8000696E616C00000000000000545452205206
:105A90004547474553006D61696E002A2A2A204216
:105AA0006F6F74696E67206E524620436F6E6E652D
:105AB00063742053444B2076332E352E39392D6EA6
:105AC0006373312D31202A2A2A0A00286E756C6CE6
:0C5AD00029002A666C6F61742A00000037
